:020000020000FC
:0600000033270C943400CC
:10002C000C9418000F933F930FB70F9334913296A3
:10003C003BB90F910FBF3F910F9118957E00300087
:10004C006D00790033005B005F0070007F007B0067
:10005C0077001F004E003D004F0047000FEF0DBF13
:10006C0008E00EBF0FEF0AB900E0009389000FE320
:10007C000093880000E0009380000CE00093810066
:10008C0000916F00026000936F00F0E0E8E4789458
:0A009C003734F1F7F0E0E8E4FBCFA1
:00000001FF
