:020000020000FC
:080000000C9418000C94180088
:080010000C943F000C944A001F
:10002C000C945500F8943FEF3DBF38E03EBF34EFE1
:10003C003093890034E23093880030E030938000B4
:10004C003CE03093810030916F00326030936F0050
:10005C0030E03AB930E037B93FEF34B936E030939D
:10006C0068003FEF30936D0030E330936C00789470
:10007C002FC03F933FB73F9356B15F930E947600DA
:10008C003F913FBF3F9118953F933FB73F9359B175
:10009C005F930E9476003F913FBF3F9118953F932D
:1000AC003FB73F933F913FBF3F9118955F914F9161
:1000BC0071E0451711F04795FCCF70E008955F9102
:1000CC004F9172E0451711F0441FFCCF70E008957A
:1000DC00403021F04F935F930E945C0070E00BC0A6
:1000EC005F91362F3523303011F4652B5F930895D3
:0800FC0064274F910895FFCF26
:00000001FF
