:020000020000FC
:040000000C94180044
:040014000C943C000C
:10002C000C944D00F8943FEF3DBF38E03EBF34EFE9
:10003C003093890034E23093880030E030938000B4
:10004C003CE03093810030916F00326030936F0050
:10005C0030E03AB93FEF37B93FEF34B934E0309381
:10006C0068003FEF30936D00789465C03F933FB7C5
:10007C003F9359B1503039F0593018F090E1599FF5
:10008C00512D0E94A7003F913FBF3F9118953F9380
:10009C003FB73F9313953F913FBF3F91189530E188
:1000AC0090910101939F212D71E0421741F0133083
:1000BC0029F446950E94F80048B910E0F6CF70E09C
:1000CC000E94D00035B190E1392B35B910E01230D7
:1000DC00F1F735B190E2392B35B910E01230F1F768
:1000EC0035B190E3392735B9089530E1909101018C
:1000FC00939F212D72E0421741F0133029F4440FE5
:10010C000E94F80048B910E0F6CF70E00E94D000D1
:10011C0035B190E1392B35B910E01230F1F735B12A
:10012C0090E2392B35B910E01230F1F735B190E38C
:10013C00392735B9089541E0552760E0882770E0EC
:10014C0066C0362F3523303019F40E94AF00652B72
:10015C000895352F803031F0813049F0823069F0CC
:10016C00833081F090E1399F0092010111C0909190
:10017C000101392B309301010BC090E1399F0092A2
:10018C00000106C090910001392B3093000100C092
:10019C008395089564279091010130E1939F00921B
:1001AC0001019091000130E1939F309101013129BF
:1001BC00309301019091000130E1939F0092000176
:1001CC008A950895803069F030E190910101939FF8
:1001DC00212D10E0421718F00E94550002C00E9419
:1001EC007B000895413031F0423039F0443041F019
:1001FC00483049F030E035B909C031E035B906C0B6
:10020C0032E035B903C033E035B900C008950E941F
:08021C00F8000E94E800FBCF8E
:00000001FF
