:020000020000FC
:040000000C94180044
:080010000C943F000C944F001A
:10002C000C946000F8943FEF3DBF38E03EBF34EFD6
:10003C003093890034E23093880030E030938000B4
:10004C003CE03093810030916F00326030936F0050
:10005C0030E03AB930E037B93FEF34B936E030939D
:10006C0068003FEF30936D003FEF30936C00789455
:10007C0076C03F933FB73F9336B1303031F03130DB
:10008C0011F01EEE02C01EEE00C03F913FBF3F912B
:10009C0018953F933FB73F9359B1503039F05930D1
:1000AC0018F090E1599F512D0E94BB003F913FBF2A
:1000BC003F9118953F933FB73F9313953F913FBFA7
:1000CC003F91189530E190910101939F212D71E0A2
:1000DC00421739F0133020F046950E940C0110E0C5
:1000EC00F7CF70E00E94E4000E94A60010E01530EB
:1000FC00F0F30E94AB0010E01530F0F30E94B0005A
:10010C00089530E190910101939F212D72E04217E7
:10011C0039F0133020F0440F0E940C0110E0F7CF9F
:10012C0070E00E94E4000E94A60010E01530F0F38D
:10013C000E94AB0010E01530F0F30E94B00008955F
:10014C0035B190E1392B35B9089535B190E2392BA1
:10015C0035B9089535B190E3392735B9089541E0A3
:10016C0055276627882770E066C0362F3523303038
:10017C0019F40E94C300652B0895352F803031F09F
:10018C00813049F0823069F0833081F090E1399F01
:10019C000092010111C090910101392B30930101A2
:1001AC000BC090E1399F0092000106C090910001B4
:1001BC00392B3093000100C08395089564279091EA
:1001CC00010130E1939F009201019091000130E117
:1001DC00939F3091010131293093010190910001DD
:1001EC0030E1939F009200018A950895803069F068
:1001FC0030E190910101939F212D10E0421718F0EE
:10020C000E94680002C00E9487000895413031F0BE
:10021C00423039F0443041F0483049F030E035B9E3
:10022C0009C031E035B906C032E035B903C033E05E
:10023C0035B900C008950E940C010E94FC00FBCF50
:00000001FF
